:100000008728640011200318012842200830A3002B
:1000100043201120A20C0C28A30B082843202208FF
:10002000080036088400340884178004841300050F
:1000300033193406FF3E0800A60036088400093054
:10004000A70003102820A60CA70B22280314282899
:100050008413B31D372800083404331D3406800090
:10006000841700083404031C340680004328000869
:100070003404031C34063319340680008417340911
:10008000800543283317330D0639A0005120A10005
:10009000A00A5120331F6B283313A00002307D20AB
:1000A0006B2800308A002008820701349934033419
:1000B0003934003460340C34FD34A301A200FF3025
:1000C000A207031CA307031C82280330A100E6300B
:1000D0006B205F28A101FC3EA000A109031C76282B
:1000E000FF300000A00703187128A0076400A10FCB
:1000F000702808000310A10CA00CFF3E03187A28FA
:1001000020088228831303138312640008008316D7
:100110009C0183129F0183169B018312861583160F
:1001200086118312061583160611323083128A0156
:100130005D200630B6000130B4000630B300523006
:100140008A011C2045308A011C2041308A011C2074
:1001500044308A011C2059308A011C200D308A014C
:100160001C200630B6000230B4000630B300523016
:100170008A011C2045308A011C2041308A011C2044
:1001800044308A011C2059308A011C200D308A011C
:100190001C200617831606138312861383168613F4
:1001A00083120630B6000230B4000630B3008A0174
:1001B0000120B80064003808213C8A11031DFA2888
:1001C0000630B6000130B4000630B30043308A0177
:1001D0001C204F308A011C204D308A011C204F30DA
:1001E0008A011C204B308A011C200D308A011C2002
:1001F0008A01D12864003808513C8A11031D1F2947
:10020000083086068316861106308312B600013048
:10021000B4000630B30050308A011C2054308A01EB
:100220001C2054308A011C204F308A011C204B3086
:100230008A011C200D308A011C208A01D12864000B
:100240003808573C8A11031D4A29061183160611E6
:10025000323083128A015D2006158316061106309E
:100260008312B6000130B4000630B30043308A0177
:100270001C2055308A011C2050308A011C204F3030
:100280008A011C204B308A011C200D308A011C2061
:100290008A01D12864003808533C8A11031D77294C
:1002A00006118316061183120530A300DC308A0183
:1002B0005E2006158316061106308312B600013043
:1002C000B4000630B30053308A011C2043308A0149
:1002D0001C204E308A011C204F308A011C204B30DC
:1002E0008A011C200D308A011C208A01D128063089
:1002F000B6000130B4000630B30045308A011C203E
:1003000052308A011C2052308A011C204F308A0151
:100310001C2052308A011C200D308A011C208A01C9
:02032000D128E2
:02400E006A3F07
:00000001FF
